{
  "contractName": "SampleLib",
  "abi": [
    {
      "constant": false,
      "inputs": [
        {
          "name": "_self",
          "type": "SampleLib.SampleStruct storage"
        },
        {
          "name": "_sender",
          "type": "address"
        },
        {
          "name": "_state",
          "type": "bool"
        }
      ],
      "name": "create",
      "outputs": [],
      "payable": false,
      "stateMutability": "nonpayable",
      "type": "function"
    }
  ],
  "bytecode": "0x610154610030600b82828239805160001a6073146000811461002057610022565bfe5b5030600052607381538281f3fe7300000000000000000000000000000000000000003014608060405260043610610058576000357c0100000000000000000000000000000000000000000000000000000000900463ffffffff16806391b5800c1461005d575b600080fd5b81801561006957600080fd5b506100c26004803603606081101561008057600080fd5b8101908080359060200190929190803573ffffffffffffffffffffffffffffffffffffffff1690602001909291908035151590602001909291905050506100c4565b005b808360000160006101000a81548160ff021916908315150217905550818360000160016101000a81548173ffffffffffffffffffffffffffffffffffffffff021916908373ffffffffffffffffffffffffffffffffffffffff16021790555050505056fea165627a7a723058200ec783f9fd2d792f5a45ab3139d129dbdc1528578ebd8be0e2a84fec950283a50029",
  "source": "pragma solidity 0.5.0;\n\nlibrary SampleLib {\n\n    struct SampleStruct{\n        bool state;\n        address sender;\n    }\n\n    function create(\n        SampleStruct storage _self,\n        address _sender,\n        bool _state\n    )\n        public\n    {\n        _self.state = _state;\n        _self.sender = _sender;\n    }\n}",
  "sourcePath": "/Users/ahmed/Desktop/code/playWithZos/playWithZeppelinOS/contracts/SampleLib.sol",
  "compiler": {
    "name": "solc",
    "version": "0.5.0+commit.1d4f565a.Emscripten.clang"
  },
  "schemaVersion": "3.0.2",
  "updatedAt": "2019-03-27T11:21:01.247Z",
  "devdoc": {
    "methods": {}
  },
  "userdoc": {
    "methods": {}
  }
}